{
  "transactions": [
    {
      "hash": "0xb1ac23bda9513b809ceb139d2ee8dd478530e8027ffc1738822c0d299cc1cefe",
      "transactionType": "CALL",
      "contractName": null,
      "contractAddress": "0x8a6906cff9bbc69464e74c0b16838727476597f4",
      "function": "switchMelee(uint256)",
      "arguments": [
        "0"
      ],
      "transaction": {
        "from": "0xab29dad6de7ebef4e1456fd8518aedd7b98d73d9",
        "to": "0x8a6906cff9bbc69464e74c0b16838727476597f4",
        "gas": "0xae33",
        "value": "0x0",
        "input": "0xfc0db9fa0000000000000000000000000000000000000000000000000000000000000000",
        "nonce": "0x2",
        "chainId": "0xaa36a7"
      },
      "additionalContracts": [],
      "isFixedGasLimit": false
    }
  ],
  "receipts": [
    {
      "type": "0x2",
      "status": "0x1",
      "cumulativeGasUsed": "0x134516e",
      "logs": [
        {
          "address": "0x8a6906cff9bbc69464e74c0b16838727476597f4",
          "topics": [
            "0x6b48dd43c757b4cd1e18f7de18a70aa6d1312a538e5b1fb965ce1774f37a1c4b",
            "0x0000000000000000000000000000000000000000000000000000000000000000",
            "0x000000000000000000000000ab29dad6de7ebef4e1456fd8518aedd7b98d73d9"
          ],
          "data": "0x0000000000000000000000000000000000000000000000000000000000000002",
          "blockHash": "0x49e3c9429bc0f22c193e589c655fa5a3495d24da8c69609ec0e607ac00722baf",
          "blockNumber": "0xabf4d7",
          "blockTimestamp": "0x6a55e434",
          "transactionHash": "0xb1ac23bda9513b809ceb139d2ee8dd478530e8027ffc1738822c0d299cc1cefe",
          "transactionIndex": "0x64",
          "logIndex": "0x3ac",
          "removed": false
        }
      ],
      "logsBloom": "0x00000020000000000000000000000000000000800000000000000000000000000000000000000000000000010000000000000000000000000000000000000000000000000000000000000000000000000000000000000000000000000000000000000000020000000000000000000800800000000000000000000000000000000000000200000000000000000000000000000000000000000000000000000000000040000000000000000001000000000000000000000000000000000000000000000000002000000000000000000000000000000000000000008000000020000000000000000000000000000000000000000000000000000000000000000000",
      "transactionHash": "0xb1ac23bda9513b809ceb139d2ee8dd478530e8027ffc1738822c0d299cc1cefe",
      "transactionIndex": "0x64",
      "blockHash": "0x49e3c9429bc0f22c193e589c655fa5a3495d24da8c69609ec0e607ac00722baf",
      "blockNumber": "0xabf4d7",
      "gasUsed": "0x7e1f",
      "effectiveGasPrice": "0x412ce5b9",
      "from": "0xab29dad6de7ebef4e1456fd8518aedd7b98d73d9",
      "to": "0x8a6906cff9bbc69464e74c0b16838727476597f4",
      "contractAddress": null
    }
  ],
  "libraries": [],
  "pending": [],
  "returns": {},
  "timestamp": 1784013878852,
  "chain": 11155111,
  "commit": null
}